:020000040000FA
:020000000528D1
:080008004A2807308316850128
:100010008516E1308600811383128B170B16831629
:1000200001138312A8015820A2005820A3005820D1
:10003000A4005820A5005820A6005820A700C030D2
:100040002202031924283D2880302302031929287D
:100050003D28C030240203192E283D28A230250255
:10006000031933283D28A8302602031938283D28D3
:10007000EC302702031941283D2806183D280517B2
:10008000132806184128051305168501A8018B17AA
:100090000B1613288B10A80A3F30A80528088500E6
:1000A0000517033C031D090085178B130B1209006C
:1000B000A1010D308600861E6B28A10A061F6B2841
:1000C000A10A861F6B28A10A0C30210203195828A7
:1000D0000314860D5B28861E6B28061F6D28861F5D
:1000E0006F282108742008008207EC34803488349B
:1000F0008C3489348134EC34A234A8348434C03450
:02010000813448
:00000001FF
